:100000000EC028C027C07BC025C02FC023C022C07F
:1000100021C020C01FC01EC01DC01CC01BC0112499
:100020001FBECFE5D2E0DEBFCDBF10E0A0E6B0E05E
:10003000EAEAF3E002C005900D92A036B107D9F7C5
:1000400020E0A0E6B0E001C01D92A138B207E1F7C0
:10005000B3D0A9C1D5CF8F7787B987B187B9369A81
:100060003699FECF84B195B108951F920F920FB6C5
:100070000F9211242F933F938F939F93AF93BF932E
:1000800080917D0090917E00A0917F00B0918000D2
:1000900030917C0026E0230F2D3768F129E8230FEB
:1000A0000396A11DB11D20937C0080937D00909349
:1000B0007E00A0937F00B0938000809178009091A3
:1000C0007900A0917A00B0917B000196A11DB11D2D
:1000D0008093780090937900A0937A00B0937B008E
:1000E000BF91AF919F918F913F912F910F900FBE34
:1000F0000F901F9018950296A11DB11DD4CF1F928D
:100100000F920FB60F9211242F938F939F9390917C
:10011000640080916500891770F41092640088B3C0
:1001200091E0892788BB80916300813021F488B3F6
:1001300094E0892788BB809164008F5F809364007E
:100140009091620080916E00891770F410926200A5
:1001500088B392E0892788BB80916300813021F4C5
:1001600088B394E0892788BB809162008F5F809379
:1001700062008091600090916100893E93405CF044
:10018000109261001092600081E0909163009111E3
:1001900080E08093630080916000909161000196FF
:1001A00090936100809360009F918F912F910F90A9
:1001B0000FBE0F901F90189583E08ABD83BF78947F
:1001C00089B7826089BF80E48CBD9FEF9DBD97ECAD
:1001D00090BF96E896B997E097BBF89410BE1FBC05
:1001E00098EC9EBD9DBD89BF82E880BF7894CC24E9
:1001F000C3945CEFD52EEE24EA94FE2C88248A94D6
:1002000063E0962EA12CB12C10917700C12FD0E085
:1002100082E821DFCC0FDD1FFE01EA59FF4F9183F9
:100220008083609166007091670080916800909172
:100230006900680F791F80916A0090916B00680FC8
:10024000791F80916C0090916D00680F791F7595F2
:10025000679575956795072E000C880B990B6F5F56
:1002600073408109910922E43FEF4FEF5FEF44D0E3
:10027000A70196015AD028533F4F4F4F5F4F20930D
:10028000650083E8E8DEC159DF4F99838883609178
:100290006F00709170008091710090917200680FF2
:1002A000791F8091730090917400680F791F80917D
:1002B000750090917600680F791F75956795759513
:1002C0006795072E000C880B990B22E43FEF4FEF48
:1002D0005FEF12D0A501940128D028533F4F4F4F14
:1002E0005F4F20936E001F5F10937700143008F467
:1002F0008BCF1092770088CFEE27FF27AA27BB2746
:1003000008C0A20FB31FE41FF51F220F331F441FA5
:10031000551F969587957795679598F37040A9F73F
:10032000009799F7BD01CF010895052E97FB16F4AC
:1003300000940FD057FD05D014D007FC02D046F42E
:1003400008C050954095309521953F4F4F4F5F4FD6
:10035000089590958095709561957F4F8F4F9F4F31
:100360000895A1E21A2EAA1BBB1BFD010DC0AA1FF6
:10037000BB1FEE1FFF1FA217B307E407F50720F00E
:10038000A21BB30BE40BF50B661F771F881F991F89
:100390001A9469F760957095809590959B01AC01D2
:0A03A000BD01CF010895F894FFCFCE
:00000001FF
